{
  "contractName": "TraxainDapp",
  "abi": [
    {
      "inputs": [
        {
          "internalType": "contract TraxainToken",
          "name": "_traxainToken",
          "type": "address"
        },
        {
          "internalType": "address payable",
          "name": "_depositer",
          "type": "address"
        }
      ],
      "stateMutability": "nonpayable",
      "type": "constructor"
    },
    {
      "inputs": [
        {
          "internalType": "uint256",
          "name": "",
          "type": "uint256"
        }
      ],
      "name": "Main",
      "outputs": [
        {
          "internalType": "uint256",
          "name": "idS",
          "type": "uint256"
        },
        {
          "internalType": "address",
          "name": "participant",
          "type": "address"
        },
        {
          "internalType": "uint256",
          "name": "price",
          "type": "uint256"
        },
        {
          "internalType": "uint256",
          "name": "mainTrip",
          "type": "uint256"
        }
      ],
      "stateMutability": "view",
      "type": "function",
      "constant": true
    },
    {
      "inputs": [
        {
          "internalType": "uint256",
          "name": "",
          "type": "uint256"
        }
      ],
      "name": "Subs",
      "outputs": [
        {
          "internalType": "uint256",
          "name": "idS",
          "type": "uint256"
        },
        {
          "internalType": "address",
          "name": "participant",
          "type": "address"
        },
        {
          "internalType": "uint256",
          "name": "price",
          "type": "uint256"
        },
        {
          "internalType": "uint256",
          "name": "mainTrip",
          "type": "uint256"
        }
      ],
      "stateMutability": "view",
      "type": "function",
      "constant": true
    },
    {
      "inputs": [
        {
          "internalType": "address",
          "name": "",
          "type": "address"
        }
      ],
      "name": "Users",
      "outputs": [
        {
          "internalType": "address",
          "name": "participant",
          "type": "address"
        }
      ],
      "stateMutability": "view",
      "type": "function",
      "constant": true
    },
    {
      "inputs": [],
      "name": "applicant",
      "outputs": [
        {
          "internalType": "address",
          "name": "",
          "type": "address"
        }
      ],
      "stateMutability": "view",
      "type": "function",
      "constant": true
    },
    {
      "inputs": [],
      "name": "depositer",
      "outputs": [
        {
          "internalType": "address payable",
          "name": "",
          "type": "address"
        }
      ],
      "stateMutability": "view",
      "type": "function",
      "constant": true
    },
    {
      "inputs": [
        {
          "internalType": "uint256",
          "name": "",
          "type": "uint256"
        }
      ],
      "name": "everyTrip",
      "outputs": [
        {
          "internalType": "uint256",
          "name": "creationDay",
          "type": "uint256"
        },
        {
          "internalType": "string",
          "name": "extRef",
          "type": "string"
        },
        {
          "internalType": "uint256",
          "name": "bufferDay",
          "type": "uint256"
        },
        {
          "internalType": "uint256",
          "name": "payDay",
          "type": "uint256"
        },
        {
          "internalType": "uint256",
          "name": "status",
          "type": "uint256"
        },
        {
          "internalType": "address",
          "name": "verifier",
          "type": "address"
        }
      ],
      "stateMutability": "view",
      "type": "function",
      "constant": true
    },
    {
      "inputs": [],
      "name": "mainID",
      "outputs": [
        {
          "internalType": "uint256",
          "name": "",
          "type": "uint256"
        }
      ],
      "stateMutability": "view",
      "type": "function",
      "constant": true
    },
    {
      "inputs": [],
      "name": "time",
      "outputs": [
        {
          "internalType": "uint256",
          "name": "",
          "type": "uint256"
        }
      ],
      "stateMutability": "view",
      "type": "function",
      "constant": true
    },
    {
      "inputs": [],
      "name": "traxainToken",
      "outputs": [
        {
          "internalType": "contract TraxainToken",
          "name": "",
          "type": "address"
        }
      ],
      "stateMutability": "view",
      "type": "function",
      "constant": true
    },
    {
      "inputs": [
        {
          "internalType": "string",
          "name": "_extRef",
          "type": "string"
        },
        {
          "internalType": "uint256",
          "name": "_bufferDay",
          "type": "uint256"
        },
        {
          "internalType": "uint256",
          "name": "_payDay",
          "type": "uint256"
        },
        {
          "internalType": "uint256",
          "name": "_deposited",
          "type": "uint256"
        },
        {
          "internalType": "address",
          "name": "_verifier",
          "type": "address"
        }
      ],
      "name": "createTrip",
      "outputs": [],
      "stateMutability": "payable",
      "type": "function",
      "payable": true
    },
    {
      "inputs": [
        {
          "internalType": "uint256",
          "name": "_mainID",
          "type": "uint256"
        },
        {
          "internalType": "address",
          "name": "_provider",
          "type": "address"
        },
        {
          "internalType": "uint256",
          "name": "_price",
          "type": "uint256"
        }
      ],
      "name": "addSub",
      "outputs": [],
      "stateMutability": "nonpayable",
      "type": "function"
    },
    {
      "inputs": [
        {
          "internalType": "uint256",
          "name": "_mainID",
          "type": "uint256"
        }
      ],
      "name": "confirmByClient",
      "outputs": [
        {
          "internalType": "bool",
          "name": "",
          "type": "bool"
        }
      ],
      "stateMutability": "nonpayable",
      "type": "function"
    },
    {
      "inputs": [
        {
          "internalType": "uint256",
          "name": "_mainID",
          "type": "uint256"
        }
      ],
      "name": "confirmByVeryfier",
      "outputs": [
        {
          "internalType": "bool",
          "name": "",
          "type": "bool"
        }
      ],
      "stateMutability": "nonpayable",
      "type": "function"
    },
    {
      "inputs": [
        {
          "internalType": "uint256",
          "name": "_mainID",
          "type": "uint256"
        }
      ],
      "name": "complaintByClient",
      "outputs": [],
      "stateMutability": "nonpayable",
      "type": "function"
    },
    {
      "inputs": [
        {
          "internalType": "uint256",
          "name": "_mainID",
          "type": "uint256"
        }
      ],
      "name": "solveComplaint",
      "outputs": [],
      "stateMutability": "nonpayable",
      "type": "function"
    },
    {
      "inputs": [
        {
          "internalType": "uint256",
          "name": "_mainID",
          "type": "uint256"
        }
      ],
      "name": "unlockFunds",
      "outputs": [],
      "stateMutability": "nonpayable",
      "type": "function"
    },
    {
      "inputs": [
        {
          "internalType": "uint256",
          "name": "_mainID",
          "type": "uint256"
        }
      ],
      "name": "sendFunds",
      "outputs": [],
      "stateMutability": "payable",
      "type": "function",
      "payable": true
    },
    {
      "inputs": [
        {
          "internalType": "uint256",
          "name": "_mainID",
          "type": "uint256"
        }
      ],
      "name": "markAsPaid",
      "outputs": [],
      "stateMutability": "nonpayable",
      "type": "function"
    },
    {
      "inputs": [],
      "name": "setTime",
      "outputs": [
        {
          "internalType": "uint256",
          "name": "",
          "type": "uint256"
        }
      ],
      "stateMutability": "nonpayable",
      "type": "function"
    },
    {
      "inputs": [
        {
          "internalType": "uint256",
          "name": "_id",
          "type": "uint256"
        }
      ],
      "name": "getTripExtRef",
      "outputs": [
        {
          "internalType": "string",
          "name": "",
          "type": "string"
        }
      ],
      "stateMutability": "view",
      "type": "function",
      "constant": true
    },
    {
      "inputs": [],
      "name": "getDepositer",
      "outputs": [
        {
          "internalType": "address",
          "name": "",
          "type": "address"
        }
      ],
      "stateMutability": "view",
      "type": "function",
      "constant": true
    },
    {
      "inputs": [],
      "name": "getMsgSender",
      "outputs": [
        {
          "internalType": "address",
          "name": "",
          "type": "address"
        }
      ],
      "stateMutability": "view",
      "type": "function",
      "constant": true
    },
    {
      "inputs": [
        {
          "internalType": "uint256",
          "name": "_id",
          "type": "uint256"
        }
      ],
      "name": "getOwner",
      "outputs": [
        {
          "internalType": "address",
          "name": "",
          "type": "address"
        }
      ],
      "stateMutability": "nonpayable",
      "type": "function"
    },
    {
      "inputs": [
        {
          "internalType": "uint256",
          "name": "_id",
          "type": "uint256"
        }
      ],
      "name": "getSender",
      "outputs": [
        {
          "internalType": "address",
          "name": "",
          "type": "address"
        }
      ],
      "stateMutability": "nonpayable",
      "type": "function"
    },
    {
      "inputs": [
        {
          "internalType": "uint256",
          "name": "_id",
          "type": "uint256"
        }
      ],
      "name": "generalRequirements",
      "outputs": [],
      "stateMutability": "nonpayable",
      "type": "function"
    },
    {
      "inputs": [
        {
          "internalType": "uint256",
          "name": "_mainID",
          "type": "uint256"
        }
      ],
      "name": "getSubs",
      "outputs": [
        {
          "internalType": "uint256",
          "name": "",
          "type": "uint256"
        }
      ],
      "stateMutability": "view",
      "type": "function",
      "constant": true
    },
    {
      "inputs": [
        {
          "internalType": "uint256",
          "name": "_idSub",
          "type": "uint256"
        }
      ],
      "name": "getSubAddress",
      "outputs": [
        {
          "internalType": "address",
          "name": "",
          "type": "address"
        }
      ],
      "stateMutability": "view",
      "type": "function",
      "constant": true
    },
    {
      "inputs": [
        {
          "internalType": "uint256",
          "name": "_idSub",
          "type": "uint256"
        }
      ],
      "name": "getSubPrices",
      "outputs": [
        {
          "internalType": "uint256",
          "name": "",
          "type": "uint256"
        }
      ],
      "stateMutability": "view",
      "type": "function",
      "constant": true
    },
    {
      "inputs": [
        {
          "internalType": "uint256",
          "name": "_mainID",
          "type": "uint256"
        },
        {
          "internalType": "uint256",
          "name": "_ind",
          "type": "uint256"
        }
      ],
      "name": "getSubIds",
      "outputs": [
        {
          "internalType": "uint256",
          "name": "",
          "type": "uint256"
        }
      ],
      "stateMutability": "view",
      "type": "function",
      "constant": true
    },
    {
      "inputs": [
        {
          "internalType": "address",
          "name": "_user",
          "type": "address"
        }
      ],
      "name": "getSubsArray",
      "outputs": [
        {
          "internalType": "uint256[]",
          "name": "",
          "type": "uint256[]"
        }
      ],
      "stateMutability": "view",
      "type": "function",
      "constant": true
    },
    {
      "inputs": [
        {
          "internalType": "uint256",
          "name": "_idSub",
          "type": "uint256"
        }
      ],
      "name": "getMainFromSub",
      "outputs": [
        {
          "internalType": "uint256",
          "name": "",
          "type": "uint256"
        }
      ],
      "stateMutability": "view",
      "type": "function",
      "constant": true
    }
  ],
  "bytecode": "0x608060405234801561001057600080fd5b50604051612e0a380380612e0a8339818101604052604081101561003357600080fd5b810190808051906020019092919080519060200190929190505050816000806101000a81548173ffffffffffffffffffffffffffffffffffffffff021916908373ffffffffffffffffffffffffffffffffffffffff16021790555080600460006101000a81548173ffffffffffffffffffffffffffffffffffffffff021916908373ffffffffffffffffffffffffffffffffffffffff1602179055505050612d2a806100e06000396000f3fe6080604052600436106101d85760003560e01c80638b28101811610102578063c41a360a11610095578063ece75aef11610064578063ece75aef14610c09578063f630cfde14610c4a578063f8689a6d14610c85578063fcd0530214610cd4576101d8565b8063c41a360a14610a84578063d9276a4914610ae9578063ebd1b5e514610b14578063ec35b24b14610b63576101d8565b8063b46ece98116100d1578063b46ece9814610892578063b5ef6baf146108f7578063b6a822ab146109e4578063b971302a14610a1f576101d8565b80638b281018146107345780639264543f1461076257806399b956a01461079d578063aba5d18714610818576101d8565b80635ef2e0541161017a5780637a6ce2e1116101495780637a6ce2e1146105f75780637aff767d1461063857806386b370221461067957806388e687ea146106f3576101d8565b80635ef2e0541461045d578063656689d4146104885780636894c950146105815780637021cafe146105bc576101d8565b80632c1ba839116101b65780632c1ba839146102be57806333f4ce6a146102ff5780634423814e1461035857806357e92f831461040c576101d8565b806314dfa993146101dd57806316ada547146102425780631cacc1501461026d575b600080fd5b3480156101e957600080fd5b506102406004803603606081101561020057600080fd5b8101908080359060200190929190803573ffffffffffffffffffffffffffffffffffffffff16906020019092919080359060200190929190505050610d23565b005b34801561024e57600080fd5b50610257610f9c565b6040518082815260200191505060405180910390f35b34801561027957600080fd5b506102a66004803603602081101561029057600080fd5b8101908080359060200190929190505050610fa2565b60405180821515815260200191505060405180910390f35b3480156102ca57600080fd5b506102d36110d5565b604051808273ffffffffffffffffffffffffffffffffffffffff16815260200191505060405180910390f35b34801561030b57600080fd5b506103426004803603604081101561032257600080fd5b8101908080359060200190929190803590602001909291905050506110fb565b6040518082815260200191505060405180910390f35b34801561036457600080fd5b506103916004803603602081101561037b57600080fd5b8101908080359060200190929190505050611136565b6040518080602001828103825283818151815260200191508051906020019080838360005b838110156103d15780820151818401526020810190506103b6565b50505050905090810190601f1680156103fe5780820380516001836020036101000a031916815260200191505b509250505060405180910390f35b34801561041857600080fd5b506104456004803603602081101561042f57600080fd5b81019080803590602001909291905050506112e5565b60405180821515815260200191505060405180910390f35b34801561046957600080fd5b506104726113ec565b6040518082815260200191505060405180910390f35b61057f600480360360a081101561049e57600080fd5b81019080803590602001906401000000008111156104bb57600080fd5b8201836020820111156104cd57600080fd5b803590602001918460018302840111640100000000831117156104ef57600080fd5b91908080601f016020809104026020016040519081016040528093929190818152602001838380828437600081840152601f19601f820116905080830192505050505050509192919290803590602001909291908035906020019092919080359060200190929190803573ffffffffffffffffffffffffffffffffffffffff1690602001909291905050506113f2565b005b34801561058d57600080fd5b506105ba600480360360208110156105a457600080fd5b810190808035906020019092919050505061161a565b005b3480156105c857600080fd5b506105f5600480360360208110156105df57600080fd5b810190808035906020019092919050505061174c565b005b34801561060357600080fd5b5061060c6118ba565b604051808273ffffffffffffffffffffffffffffffffffffffff16815260200191505060405180910390f35b34801561064457600080fd5b5061064d6118c2565b604051808273ffffffffffffffffffffffffffffffffffffffff16815260200191505060405180910390f35b34801561068557600080fd5b506106b26004803603602081101561069c57600080fd5b81019080803590602001909291905050506118f1565b604051808581526020018473ffffffffffffffffffffffffffffffffffffffff16815260200183815260200182815260200194505050505060405180910390f35b3480156106ff57600080fd5b50610708611941565b604051808273ffffffffffffffffffffffffffffffffffffffff16815260200191505060405180910390f35b6107606004803603602081101561074a57600080fd5b8101908080359060200190929190505050611967565b005b34801561076e57600080fd5b5061079b6004803603602081101561078557600080fd5b8101908080359060200190929190505050611e7b565b005b3480156107a957600080fd5b506107ec600480360360208110156107c057600080fd5b81019080803573ffffffffffffffffffffffffffffffffffffffff169060200190929190505050611fb3565b604051808273ffffffffffffffffffffffffffffffffffffffff16815260200191505060405180910390f35b34801561082457600080fd5b506108516004803603602081101561083b57600080fd5b8101908080359060200190929190505050611ff1565b604051808581526020018473ffffffffffffffffffffffffffffffffffffffff16815260200183815260200182815260200194505050505060405180910390f35b34801561089e57600080fd5b506108cb600480360360208110156108b557600080fd5b8101908080359060200190929190505050612041565b604051808273ffffffffffffffffffffffffffffffffffffffff16815260200191505060405180910390f35b34801561090357600080fd5b506109306004803603602081101561091a57600080fd5b8101908080359060200190929190505050612086565b60405180878152602001806020018681526020018581526020018481526020018373ffffffffffffffffffffffffffffffffffffffff168152602001828103825287818151815260200191508051906020019080838360005b838110156109a4578082015181840152602081019050610989565b50505050905090810190601f1680156109d15780820380516001836020036101000a031916815260200191505b5097505050505050505060405180910390f35b3480156109f057600080fd5b50610a1d60048036036020811015610a0757600080fd5b810190808035906020019092919050505061217a565b005b348015610a2b57600080fd5b50610a5860048036036020811015610a4257600080fd5b8101908080359060200190929190505050612270565b604051808273ffffffffffffffffffffffffffffffffffffffff16815260200191505060405180910390f35b348015610a9057600080fd5b50610abd60048036036020811015610aa757600080fd5b810190808035906020019092919050505061227a565b604051808273ffffffffffffffffffffffffffffffffffffffff16815260200191505060405180910390f35b348015610af557600080fd5b50610afe61255d565b6040518082815260200191505060405180910390f35b348015610b2057600080fd5b50610b4d60048036036020811015610b3757600080fd5b810190808035906020019092919050505061263e565b6040518082815260200191505060405180910390f35b348015610b6f57600080fd5b50610bb260048036036020811015610b8657600080fd5b81019080803573ffffffffffffffffffffffffffffffffffffffff169060200190929190505050612663565b6040518080602001828103825283818151815260200191508051906020019060200280838360005b83811015610bf5578082015181840152602081019050610bda565b505050509050019250505060405180910390f35b348015610c1557600080fd5b50610c1e612703565b604051808273ffffffffffffffffffffffffffffffffffffffff16815260200191505060405180910390f35b348015610c5657600080fd5b50610c8360048036036020811015610c6d57600080fd5b8101908080359060200190929190505050612727565b005b348015610c9157600080fd5b50610cbe60048036036020811015610ca857600080fd5b81019080803590602001909291905050506128ee565b6040518082815260200191505060405180910390f35b348015610ce057600080fd5b50610d0d60048036036020811015610cf757600080fd5b8101908080359060200190929190505050612a9d565b6040518082815260200191505060405180910390f35b610d2c83611e7b565b6000600160056000868152602001908152602001600020600601805490500390506000600560008681526020019081526020016000206006018281548110610d7057fe5b906000526020600020015490506006600082815260200190815260200160002060020154831115610dec576040517f08c379a0000000000000000000000000000000000000000000000000000000008152600401808060200182810382526034815260200180612c586034913960400191505060405180910390fd5b6001600081548092919060010191905055506001600081548092919060010191905055506000600186039050604051806080016040528060015481526020018673ffffffffffffffffffffffffffffffffffffffff168152602001858152602001828152506006600060015481526020019081526020016000206000820151816000015560208201518160010160006101000a81548173ffffffffffffffffffffffffffffffffffffffff021916908373ffffffffffffffffffffffffffffffffffffffff160217905550604082015181600201556060820151816003015590505060056000878152602001908152602001600020600601600154908060018154018082558091505060019003906000526020600020016000909190919091505560026005600088815260200190815260200160002060040181905550600760008673ffffffffffffffffffffffffffffffffffffffff1673ffffffffffffffffffffffffffffffffffffffff1681526020019081526020016000206001016001549080600181540180825580915050600190039060005260206000200160009091909190915055505050505050565b60025481565b6000610fad82612ac2565b6006600060056000858152602001908152602001600020600601600081548110610fd357fe5b9060005260206000200154815260200190815260200160002060010160009054906101000a900473ffffffffffffffffffffffffffffffffffffffff1673ffffffffffffffffffffffffffffffffffffffff163373ffffffffffffffffffffffffffffffffffffffff16146110b0576040517f08c379a00000000000000000000000000000000000000000000000000000000081526004018080602001828103825260168152602001807f796f75206d7573742062652074686520636c69656e740000000000000000000081525060200191505060405180910390fd5b6003600560008481526020019081526020016000206004018190555060019050919050565b600460009054906101000a900473ffffffffffffffffffffffffffffffffffffffff1681565b60008060056000858152602001908152602001600020600601838154811061111f57fe5b906000526020600020015490508091505092915050565b60606000600560008481526020019081526020016000206040518060e001604052908160008201548152602001600182018054600181600116156101000203166002900480601f0160208091040260200160405190810160405280929190818152602001828054600181600116156101000203166002900480156111fb5780601f106111d0576101008083540402835291602001916111fb565b820191906000526020600020905b8154815290600101906020018083116111de57829003601f168201915b505050505081526020016002820154815260200160038201548152602001600482015481526020016005820160009054906101000a900473ffffffffffffffffffffffffffffffffffffffff1673ffffffffffffffffffffffffffffffffffffffff1673ffffffffffffffffffffffffffffffffffffffff168152602001600682018054806020026020016040519081016040528092919081815260200182805480156112c757602002820191906000526020600020905b8154815260200190600101908083116112b3575b50505050508152505090506000816020015190508092505050919050565b60006112f082612ac2565b6005600083815260200190815260200160002060050160009054906101000a900473ffffffffffffffffffffffffffffffffffffffff1673ffffffffffffffffffffffffffffffffffffffff163373ffffffffffffffffffffffffffffffffffffffff16146113c7576040517f08c379a00000000000000000000000000000000000000000000000000000000081526004018080602001828103825260188152602001807f796f75206d75737420626520746865207665726966696572000000000000000081525060200191505060405180910390fd5b6003600560008481526020019081526020016000206004018190555060019050919050565b60015481565b60016000815480929190600101919050555060016000815480929190600101919050555060006005600060015481526020019081526020016000209050600254816000018190555085816001019080519060200190611452929190612bac565b50806006016001549080600181540180825580915050600190039060005260206000200160009091909190915055600254850181600201819055506002548401816003018190555060018160040181905550818160050160006101000a81548173ffffffffffffffffffffffffffffffffffffffff021916908373ffffffffffffffffffffffffffffffffffffffff160217905550600060018054039050604051806080016040528060015481526020013373ffffffffffffffffffffffffffffffffffffffff168152602001858152602001828152506006600060015481526020019081526020016000206000820151816000015560208201518160010160006101000a81548173ffffffffffffffffffffffffffffffffffffffff021916908373ffffffffffffffffffffffffffffffffffffffff1602179055506040820151816002015560608201518160030155905050600760003373ffffffffffffffffffffffffffffffffffffffff1673ffffffffffffffffffffffffffffffffffffffff168152602001908152602001600020600101600154908060018154018082558091505060019003906000526020600020016000909190919091505550505050505050565b6003600560008381526020019081526020016000206004015414611689576040517f08c379a0000000000000000000000000000000000000000000000000000000008152600401808060200182810382526044815260200180612c8c6044913960600191505060405180910390fd5b60025460056000838152602001908152602001600020600201546005600084815260200190815260200160002060000154011061172e576040517f08c379a00000000000000000000000000000000000000000000000000000000081526004018080602001828103825260138152602001807f546f6f206561726c7920746f20756e6c6f636b0000000000000000000000000081525060200191505060405180910390fd5b60058060008381526020019081526020016000206004018190555050565b6001548111156117c4576040517f08c379a000000000000000000000000000000000000000000000000000000000815260040180806020018281038252600d8152602001807f6964206d7573742065786973740000000000000000000000000000000000000081525060200191505060405180910390fd5b6005600082815260200190815260200160002060050160009054906101000a900473ffffffffffffffffffffffffffffffffffffffff1673ffffffffffffffffffffffffffffffffffffffff163373ffffffffffffffffffffffffffffffffffffffff161461189b576040517f08c379a00000000000000000000000000000000000000000000000000000000081526004018080602001828103825260188152602001807f796f75206d75737420626520746865207665726966696572000000000000000081525060200191505060405180910390fd5b6006600560008381526020019081526020016000206004018190555050565b600033905090565b600080600460009054906101000a900473ffffffffffffffffffffffffffffffffffffffff1690508091505090565b60066020528060005260406000206000915090508060000154908060010160009054906101000a900473ffffffffffffffffffffffffffffffffffffffff16908060020154908060030154905084565b600360009054906101000a900473ffffffffffffffffffffffffffffffffffffffff1681565b600580600083815260200190815260200160002060040154146119d5576040517f08c379a0000000000000000000000000000000000000000000000000000000008152600401808060200182810382526044815260200180612c8c6044913960600191505060405180910390fd5b600254600560008381526020019081526020016000206003015460056000848152602001908152602001600020600001540110611a7a576040517f08c379a00000000000000000000000000000000000000000000000000000000081526004018080602001828103825260118152602001807f546f6f206561726c7920746f2073656e6400000000000000000000000000000081525060200191505060405180910390fd5b600080600190505b6001600560008581526020019081526020016000206006018054905003811015611cab5760066000600560008681526020019081526020016000206006016001840181548110611ace57fe5b906000526020600020015481526020019081526020016000206002015460066000600560008781526020019081526020016000206006018481548110611b1057fe5b906000526020600020015481526020019081526020016000206002015403915060008054906101000a900473ffffffffffffffffffffffffffffffffffffffff1673ffffffffffffffffffffffffffffffffffffffff166323b872dd600460009054906101000a900473ffffffffffffffffffffffffffffffffffffffff1660066000600560008981526020019081526020016000206006018681548110611bb457fe5b9060005260206000200154815260200190815260200160002060010160009054906101000a900473ffffffffffffffffffffffffffffffffffffffff16856040518463ffffffff1660e01b8152600401808473ffffffffffffffffffffffffffffffffffffffff1681526020018373ffffffffffffffffffffffffffffffffffffffff1681526020018281526020019350505050602060405180830381600087803b158015611c6257600080fd5b505af1158015611c76573d6000803e3d6000fd5b505050506040513d6020811015611c8c57600080fd5b8101908080519060200190929190505050508080600101915050611a82565b60008054906101000a900473ffffffffffffffffffffffffffffffffffffffff1673ffffffffffffffffffffffffffffffffffffffff166323b872dd600460009054906101000a900473ffffffffffffffffffffffffffffffffffffffff1660066000600560008981526020019081526020016000206006018681548110611d2f57fe5b9060005260206000200154815260200190815260200160002060010160009054906101000a900473ffffffffffffffffffffffffffffffffffffffff1660066000600560008a81526020019081526020016000206006018781548110611d9157fe5b90600052602060002001548152602001908152602001600020600201546040518463ffffffff1660e01b8152600401808473ffffffffffffffffffffffffffffffffffffffff1681526020018373ffffffffffffffffffffffffffffffffffffffff1681526020018281526020019350505050602060405180830381600087803b158015611e1e57600080fd5b505af1158015611e32573d6000803e3d6000fd5b505050506040513d6020811015611e4857600080fd5b81019080805190602001909291905050505060066005600085815260200190815260200160002060040181905550505050565b600154811115611ef3576040517f08c379a00000000000000000000000000000000000000000000000000000000081526004018080602001828103825260158152602001807f6964206d7573742065786973742d67656e6572616c000000000000000000000081525060200191505060405180910390fd5b6000611efe8261227a565b90506000611f0b83612270565b90508173ffffffffffffffffffffffffffffffffffffffff168173ffffffffffffffffffffffffffffffffffffffff1614611fae576040517f08c379a00000000000000000000000000000000000000000000000000000000081526004018080602001828103825260208152602001807f796f7520617265206e6f742074686520636f6e74726163742773206f776e657281525060200191505060405180910390fd5b505050565b60076020528060005260406000206000915090508060000160009054906101000a900473ffffffffffffffffffffffffffffffffffffffff16905081565b60086020528060005260406000206000915090508060000154908060010160009054906101000a900473ffffffffffffffffffffffffffffffffffffffff16908060020154908060030154905084565b6000806006600084815260200190815260200160002060010160009054906101000a900473ffffffffffffffffffffffffffffffffffffffff16905080915050919050565b6005602052806000526040600020600091509050806000015490806001018054600181600116156101000203166002900480601f0160208091040260200160405190810160405280929190818152602001828054600181600116156101000203166002900480156121385780601f1061210d57610100808354040283529160200191612138565b820191906000526020600020905b81548152906001019060200180831161211b57829003601f168201915b5050505050908060020154908060030154908060040154908060050160009054906101000a900473ffffffffffffffffffffffffffffffffffffffff16905086565b6005600082815260200190815260200160002060050160009054906101000a900473ffffffffffffffffffffffffffffffffffffffff1673ffffffffffffffffffffffffffffffffffffffff163373ffffffffffffffffffffffffffffffffffffffff1614612251576040517f08c379a00000000000000000000000000000000000000000000000000000000081526004018080602001828103825260188152602001807f796f75206d75737420626520746865207665726966696572000000000000000081525060200191505060405180910390fd5b6003600560008381526020019081526020016000206004018190555050565b6000339050919050565b60006001548211156122f4576040517f08c379a00000000000000000000000000000000000000000000000000000000081526004018080602001828103825260138152602001807f6964206d7573742065786973742d6f776e65720000000000000000000000000081525060200191505060405180910390fd5b6000600560008481526020019081526020016000206040518060e001604052908160008201548152602001600182018054600181600116156101000203166002900480601f0160208091040260200160405190810160405280929190818152602001828054600181600116156101000203166002900480156123b75780601f1061238c576101008083540402835291602001916123b7565b820191906000526020600020905b81548152906001019060200180831161239a57829003601f168201915b505050505081526020016002820154815260200160038201548152602001600482015481526020016005820160009054906101000a900473ffffffffffffffffffffffffffffffffffffffff1673ffffffffffffffffffffffffffffffffffffffff1673ffffffffffffffffffffffffffffffffffffffff1681526020016006820180548060200260200160405190810160405280929190818152602001828054801561248357602002820191906000526020600020905b81548152602001906001019080831161246f575b505050505081525050905060008160c0015160018360c001515103815181106124a857fe5b60200260200101519050600060066000838152602001908152602001600020604051806080016040529081600082015481526020016001820160009054906101000a900473ffffffffffffffffffffffffffffffffffffffff1673ffffffffffffffffffffffffffffffffffffffff1673ffffffffffffffffffffffffffffffffffffffff16815260200160028201548152602001600382015481525050905060008160200151905080945050505050919050565b6000600460009054906101000a900473ffffffffffffffffffffffffffffffffffffffff1673ffffffffffffffffffffffffffffffffffffffff163373ffffffffffffffffffffffffffffffffffffffff1614612622576040517f08c379a00000000000000000000000000000000000000000000000000000000081526004018080602001828103825260198152602001807f796f75206d75737420626520746865206465706f73697465720000000000000081525060200191505060405180910390fd5b6000600260008154809291906001019190505590508091505090565b6000806006600084815260200190815260200160002060020154905080915050919050565b60606000600760008473ffffffffffffffffffffffffffffffffffffffff1673ffffffffffffffffffffffffffffffffffffffff1681526020019081526020016000206001018054806020026020016040519081016040528092919081815260200182805480156126f357602002820191906000526020600020905b8154815260200190600101908083116126df575b5050505050905080915050919050565b60008054906101000a900473ffffffffffffffffffffffffffffffffffffffff1681565b6002546005600083815260200190815260200160002060020154600560008481526020019081526020016000206000015401116127cc576040517f08c379a00000000000000000000000000000000000000000000000000000000081526004018080602001828103825260148152602001807f546f6f206c61746520746f20636f6d706c61696e00000000000000000000000081525060200191505060405180910390fd5b60066000600560008481526020019081526020016000206006016000815481106127f257fe5b9060005260206000200154815260200190815260200160002060010160009054906101000a900473ffffffffffffffffffffffffffffffffffffffff1673ffffffffffffffffffffffffffffffffffffffff163373ffffffffffffffffffffffffffffffffffffffff16146128cf576040517f08c379a00000000000000000000000000000000000000000000000000000000081526004018080602001828103825260168152602001807f796f75206d7573742062652074686520636c69656e740000000000000000000081525060200191505060405180910390fd5b6004600560008381526020019081526020016000206004018190555050565b600080600560008481526020019081526020016000206040518060e001604052908160008201548152602001600182018054600181600116156101000203166002900480601f0160208091040260200160405190810160405280929190818152602001828054600181600116156101000203166002900480156129b25780601f10612987576101008083540402835291602001916129b2565b820191906000526020600020905b81548152906001019060200180831161299557829003601f168201915b505050505081526020016002820154815260200160038201548152602001600482015481526020016005820160009054906101000a900473ffffffffffffffffffffffffffffffffffffffff1673ffffffffffffffffffffffffffffffffffffffff1673ffffffffffffffffffffffffffffffffffffffff16815260200160068201805480602002602001604051908101604052809291908181526020018280548015612a7e57602002820191906000526020600020905b815481526020019060010190808311612a6a575b505050505081525050905060008160c001515190508092505050919050565b6000806006600084815260200190815260200160002060030154905080915050919050565b600154811115612b3a576040517f08c379a00000000000000000000000000000000000000000000000000000000081526004018080602001828103825260128152602001807f6964206d7573742065786973742d636f6e66000000000000000000000000000081525060200191505060405180910390fd5b6001600560008381526020019081526020016000206004015411612ba9576040517f08c379a0000000000000000000000000000000000000000000000000000000008152600401808060200182810382526025815260200180612cd06025913960400191505060405180910390fd5b50565b828054600181600116156101000203166002900490600052602060002090601f016020900481019282612be25760008555612c29565b82601f10612bfb57805160ff1916838001178555612c29565b82800160010185558215612c29579182015b82811115612c28578251825591602001919060010190612c0d565b5b509050612c369190612c3a565b5090565b5b80821115612c53576000816000905550600101612c3b565b509056fe7072696365206d75737420626520657175616c206f7220736d616c6c6572207468616e20616d6f756e74206465706f73697465645468657265277320612070726f626c656d2c20726576696577207468652064617461202620636f6e6669726d207468657265206172656e277420636f6d706c61696e74736e6f2063617272696572207761732073656c656374656420666f7220746869732074726970a264697066735822122051da202cb96f227eb7820893d0c4f85c66f53a6e618af386952577a70fb2c2df64736f6c63430007060033",
  "immutableReferences": {},
  "source": "// SPDX-License-Identifier: MIT\npragma solidity ^0.7.0;\n\nimport  \"./TraxainToken.sol\";\nimport \"./IERC20.sol\";\nimport \"./SafeERC20.sol\";\nimport \"./Address.sol\";\n\n\n\ncontract TraxainDapp {\n    \n    \n    \n    TraxainToken public traxainToken;\n    uint public mainID;\n    uint public time;\n    address public applicant;\n    address payable public depositer;\n    //uint[][] public subs;\n    \n    struct Trip {\n           uint creationDay;\n           string extRef;\n           uint bufferDay;\n           uint payDay;\n           uint status;\n           address verifier;\n           uint[] idSub;\n           \n   }\n\n\n   struct Sub {\n           uint idS;\n           address participant;\n           uint price;\n           uint mainTrip;\n           \n   }\n\n   struct User {\n           \n           address participant;\n           uint[] idSub;\n           \n   }\n\n  \n     \n    mapping (uint => Trip) public everyTrip;\n    mapping (uint => Sub) public Subs;\n    mapping (address => User) public Users;\n    mapping (uint => Sub) public Main;\n    \n    constructor(TraxainToken _traxainToken, address payable _depositer)  {\n    \n        traxainToken = _traxainToken;\n        depositer = _depositer;\n      \n    }\n    \n  \n   \n   \n   \n   function createTrip (string memory _extRef, uint  _bufferDay, uint  _payDay, uint _deposited, address _verifier) public payable {\n       mainID ++;\n       mainID ++;\n       Trip storage newTrip = everyTrip[mainID];\n       newTrip.creationDay = time;\n       newTrip.extRef = _extRef;\n       newTrip.idSub.push(mainID);\n       newTrip.bufferDay = _bufferDay + time;\n       newTrip.payDay = _payDay + time;\n       \n       //deposit(mainID,_deposited);\n       newTrip.status = 1;\n       newTrip.verifier = _verifier;\n       uint original = mainID - 1;\n        Subs[mainID] = Sub(mainID,msg.sender,_deposited,original);\n        Users[msg.sender].idSub.push(mainID);\n\n       \n      \n   }\n   \n   function addSub (uint _mainID, address _provider, uint _price)  public  {\n       \n       //uint IDsub = trips[_mainID].idSub.length;\n       generalRequirements(_mainID);\n       uint index = everyTrip[_mainID].idSub.length-1;\n       uint currentSub = everyTrip[_mainID].idSub[index];\n       require( _price <= Subs[currentSub].price, \"price must be equal or smaller than amount deposited\");\n       mainID++;\n       mainID ++;\n       uint original = _mainID -1;\n        Subs[mainID] = Sub(mainID,_provider,_price,original);\n       everyTrip[_mainID].idSub.push(mainID);\n       everyTrip[_mainID].status = 2;\n       Users[_provider].idSub.push(mainID);\n    }\n       \n   \n     \n\n    function confirmByClient (uint _mainID ) public returns(bool){\n        confRequirements(_mainID);\n\n        require(msg.sender == Subs[everyTrip[_mainID].idSub[0]].participant, \"you must be the client\");\n        everyTrip[_mainID].status = 3;\n        return true;\n        \n       \n    }\n\n    function confirmByVeryfier (uint _mainID ) public returns(bool){\n        confRequirements(_mainID);\n        require(msg.sender == everyTrip[_mainID].verifier , \"you must be the verifier\");\n        everyTrip[_mainID].status = 3;\n        return true;\n        \n       \n   }\n   \n    function complaintByClient (uint _mainID ) public {\n       require(everyTrip[_mainID].creationDay + (everyTrip[_mainID].bufferDay)> time, \"Too late to complain\");\n    require(msg.sender == Subs[everyTrip[_mainID].idSub[0]].participant, \"you must be the client\");\n       everyTrip[_mainID].status = 4;\n   }\n   \n    function solveComplaint (uint _mainID) public {\n    require(msg.sender == everyTrip[_mainID].verifier , \"you must be the verifier\");\n       everyTrip[_mainID].status = 3;\n\n   }\n   \n    function unlockFunds (uint _mainID) public {\n       require(everyTrip[_mainID].status == 3, \"There's a problem, review the data & confirm there aren't complaints\");\n       require(everyTrip[_mainID].creationDay + (everyTrip[_mainID].bufferDay)< time, \"Too early to unlock\");\n       everyTrip[_mainID].status = 5;\n\n   }\n    function sendFunds (uint _mainID  ) public payable{\n        require(everyTrip[_mainID].status == 5, \"There's a problem, review the data & confirm there aren't complaints\");\n        require(everyTrip[_mainID].creationDay + (everyTrip[_mainID].payDay)< time, \"Too early to send\");\n        uint balance;\n        uint i = 1;\n        for (i;i< everyTrip[_mainID].idSub.length - 1;i++){\n            balance = Subs[everyTrip[_mainID].idSub[i]].price-Subs[everyTrip[_mainID].idSub[i+1]].price;\n            traxainToken.transferFrom(depositer,Subs[everyTrip[_mainID].idSub[i]].participant ,balance);\n        }\n        traxainToken.transferFrom(depositer,Subs[everyTrip[_mainID].idSub[i]].participant ,Subs[everyTrip[_mainID].idSub[i]].price);\n        \n        everyTrip[_mainID].status = 6;\n   }\n   \n    function markAsPaid (uint _mainID) public {\n         require (_mainID <= mainID, \"id must exist\");\n            require(msg.sender == everyTrip[_mainID].verifier , \"you must be the verifier\");\n            \n        everyTrip[_mainID].status = 6;\n   }\n\n\n   function setTime () public returns (uint){\n         \n            require(msg.sender == depositer , \"you must be the depositer\");\n            \n       uint timeSet = time++;\n       return timeSet;\n   }\n   \n\n\n//------------------------------------------------------------------------\n\n  function getTripExtRef(uint _id)  public view returns (string memory) {\n       Trip memory _tripRef = everyTrip[_id];\n                    string memory ref = _tripRef.extRef;\n                   return ref;\n   }\n\n    function getDepositer()  public view returns (address) {\n                    address depos = depositer;\n                   return depos;\n   }\n\n    function getMsgSender()  public view returns (address) {\n                    \n                   return msg.sender;\n   }\n\n\n\n\nfunction getOwner(uint _id) public returns (address){\n  require (_id <= mainID, \"id must exist-owner\");\n    Trip memory _tripSub = everyTrip[_id];\n                   uint currentSub = _tripSub.idSub[_tripSub.idSub.length-1];\n                   \n\nSub memory _sub = Subs[currentSub];\naddress owner = _sub.participant;\nreturn owner;\n }\n\n/*\n  function getTripArray(uint _id)  private returns (uint[] memory) {\n      Trip memory _tripArr = everyTrip[_id];\n                    uint[] memory array = _tripArr.idSub;\n                   return array;\n   }\n  */\n  \n  \n  \n\n\n\n\n\n      function getSender(uint _id) public returns (address){\n\n        \n       return msg.sender;\n   }\n      \n    function generalRequirements(uint _id) public {\n        require (_id <= mainID, \"id must exist-general\");\n       \n        address owner = getOwner(_id);\n        address sender = getSender(_id);\n       \n       require (sender == owner , \"you are not the contract's owner\");\n       \n   }\n   \n   function confRequirements(uint _id) private view{\n       require (_id <= mainID, \"id must exist-conf\");\n        require(everyTrip[_id].status > 1, \"no carrier was selected for this trip\");\n        \n    }\n\n   function getSubs(uint _mainID) public view returns(uint) {\nTrip memory _tripSub = everyTrip[_mainID];\n                   uint lastSubNo = _tripSub.idSub.length;\n\n\n      //uint result = trips[_mainID].idSub[lastSubNo];\n      return lastSubNo;\n   }\n   \n    function getSubAddress(uint _idSub) public view returns(address){\n      address resultTwo = Subs[_idSub].participant;\n      return resultTwo;\n   }\n   \n    function getSubPrices(uint _idSub) public view returns(uint){\n      uint result3 = Subs[_idSub].price;\n      return result3;\n   }\n\n   function getSubIds(uint _mainID, uint _ind) public view returns(uint){\n      uint myId = everyTrip[_mainID].idSub[_ind];\n      return myId;\n   }\n\n   function getSubsArray(address _user) public view returns(uint[] memory){\n      uint[] memory myArray = Users[_user].idSub;\n      return myArray;\n   }\n\n   function getMainFromSub(uint _idSub) public view returns(uint){\n    uint main = Subs[_idSub].mainTrip;\n    return main;\n      \n   }\n\n   \n\n\n   \n  \n   \n}",
  "sourcePath": "/home/nacho/TraxainDapp2/contracts/TraxainDapp.sol",
  "compiler": {
    "name": "solc",
    "version": "0.7.6+commit.7338295f.Emscripten.clang"
  },
  "schemaVersion": "3.4.1",
  "updatedAt": "2021-08-09T17:05:38.195Z",
  "networkType": "ethereum",
  "devdoc": {
    "kind": "dev",
    "methods": {},
    "version": 1
  },
  "userdoc": {
    "kind": "user",
    "methods": {},
    "version": 1
  }
}